{
  "contractName": "CoronaTest",
  "abi": [
    {
      "inputs": [],
      "name": "initialize",
      "outputs": [],
      "stateMutability": "nonpayable",
      "type": "function"
    },
    {
      "inputs": [
        {
          "components": [
            {
              "internalType": "string",
              "name": "patientName",
              "type": "string"
            },
            {
              "internalType": "bool",
              "name": "hasFever",
              "type": "bool"
            },
            {
              "internalType": "uint256",
              "name": "patientAge",
              "type": "uint256"
            }
          ],
          "internalType": "struct Patient",
          "name": "_patient",
          "type": "tuple"
        }
      ],
      "name": "coronaTest",
      "outputs": [
        {
          "internalType": "bool",
          "name": "result",
          "type": "bool"
        }
      ],
      "stateMutability": "pure",
      "type": "function",
      "constant": true
    }
  ],
  "bytecode": "0x608060405234801561001057600080fd5b50610681806100206000396000f3fe608060405234801561001057600080fd5b50600436106100365760003560e01c80634e8e39891461003b5780638129fc1c1461006b575b600080fd5b61005560048036038101906100509190610346565b610075565b60405161006291906104b3565b60405180910390f35b61007361013d565b005b60006040516020016100869061049e565b6040516020818303038152906040528051906020012082600001516040516020016100b19190610487565b604051602081830303815290604052805190602001201415610108576040517f08c379a00000000000000000000000000000000000000000000000000000000081526004016100ff906104ce565b60405180910390fd5b601282604001511015801561012557506001151582602001511515145b156101335760019050610138565b600090505b919050565b600060019054906101000a900460ff168061015c575061015b610225565b5b80610172575060008054906101000a900460ff16155b6101b1576040517f08c379a00000000000000000000000000000000000000000000000000000000081526004016101a8906104ee565b60405180910390fd5b60008060019054906101000a900460ff161590508015610201576001600060016101000a81548160ff02191690831515021790555060016000806101000a81548160ff0219169083151502179055505b80156102225760008060016101000a81548160ff0219169083151502179055505b50565b6000803090506000813b9050600081149250505090565b600061024f61024a8461053f565b61050e565b90508281526020810184848401111561026757600080fd5b6102728482856105ac565b509392505050565b6000813590506102898161061d565b92915050565b600082601f8301126102a057600080fd5b81356102b084826020860161023c565b91505092915050565b6000606082840312156102cb57600080fd5b6102d5606061050e565b9050600082013567ffffffffffffffff8111156102f157600080fd5b6102fd8482850161028f565b60008301525060206103118482850161027a565b602083015250604061032584828501610331565b60408301525092915050565b60008135905061034081610634565b92915050565b60006020828403121561035857600080fd5b600082013567ffffffffffffffff81111561037257600080fd5b61037e848285016102b9565b91505092915050565b61039081610596565b82525050565b60006103a18261056f565b6103ab818561058b565b93506103bb8185602086016105bb565b80840191505092915050565b60006103d460118361057a565b91507f50617469656e74206e6f7420666f756e640000000000000000000000000000006000830152602082019050919050565b6000610414602e8361057a565b91507f436f6e747261637420696e7374616e63652068617320616c726561647920626560008301527f656e20696e697469616c697a65640000000000000000000000000000000000006020830152604082019050919050565b600061047a60008361058b565b9150600082019050919050565b60006104938284610396565b915081905092915050565b60006104a98261046d565b9150819050919050565b60006020820190506104c86000830184610387565b92915050565b600060208201905081810360008301526104e7816103c7565b9050919050565b6000602082019050818103600083015261050781610407565b9050919050565b6000604051905081810181811067ffffffffffffffff82111715610535576105346105ee565b5b8060405250919050565b600067ffffffffffffffff82111561055a576105596105ee565b5b601f19601f8301169050602081019050919050565b600081519050919050565b600082825260208201905092915050565b600081905092915050565b60008115159050919050565b6000819050919050565b82818337600083830152505050565b60005b838110156105d95780820151818401526020810190506105be565b838111156105e8576000848401525b50505050565b7f4e487b7100000000000000000000000000000000000000000000000000000000600052604160045260246000fd5b61062681610596565b811461063157600080fd5b50565b61063d816105a2565b811461064857600080fd5b5056fea2646970667358221220d0b71ff0e76e08a33e8b7912f028c130ef21fc31a0813b23acb13b5b7d8d4fa964736f6c63430008000033",
  "immutableReferences": {},
  "source": "// SPDX-License-Identifier: MIT\n/// Based on https://solidity.readthedocs.io/en/develop/natspec-format.html\npragma solidity 0.8.0;\nimport \"./Patient.sol\";\nimport \"./Initializable.sol\";\n\n/// @title Logic of a Covid-19 test\n/// @author P. Sanchez github@17038634\n\ncontract CoronaTest is Initializable {\n    function initialize() public initializer {}\n\n    /// @dev Logic of the function to test a patient\n    function coronaTest(Patient memory _patient)\n        public\n        pure\n        returns (bool result)\n    {\n        require(\n            keccak256(abi.encodePacked(_patient.patientName)) !=\n                keccak256(abi.encodePacked(\"\")),\n            \"Patient not found\"\n        );\n        if (_patient.patientAge >= 18 && _patient.hasFever == true) {\n            return true;\n        } else {\n            return false;\n        }\n    }\n}\n",
  "sourcePath": "C:\\Users\\Daddy\\CoronaSystem\\contracts\\CoronaTest.sol",
  "compiler": {
    "name": "solc",
    "version": "0.8.0+commit.c7dfd78e.Emscripten.clang"
  },
  "schemaVersion": "3.3.2",
  "updatedAt": "2021-01-07T21:49:34.756Z",
  "networkType": "ethereum",
  "devdoc": {
    "author": "P. Sanchez github@17038634",
    "kind": "dev",
    "methods": {
      "coronaTest((string,bool,uint256))": {
        "details": "Logic of the function to test a patient"
      }
    },
    "title": "Logic of a Covid-19 test",
    "version": 1
  },
  "userdoc": {
    "kind": "user",
    "methods": {},
    "version": 1
  }
}