{
  "contractName": "TestStreet",
  "abi": [
    {
      "anonymous": false,
      "inputs": [
        {
          "indexed": false,
          "internalType": "uint256",
          "name": "id",
          "type": "uint256"
        },
        {
          "indexed": false,
          "internalType": "string",
          "name": "name",
          "type": "string"
        },
        {
          "indexed": false,
          "internalType": "bool",
          "name": "hasFever",
          "type": "bool"
        },
        {
          "indexed": false,
          "internalType": "address",
          "name": "_address",
          "type": "address"
        }
      ],
      "name": "newPatient",
      "type": "event"
    },
    {
      "anonymous": false,
      "inputs": [
        {
          "indexed": false,
          "internalType": "bool",
          "name": "hasCorona",
          "type": "bool"
        },
        {
          "indexed": false,
          "internalType": "string",
          "name": "name",
          "type": "string"
        }
      ],
      "name": "testResult",
      "type": "event"
    },
    {
      "inputs": [],
      "name": "infectedNumber",
      "outputs": [
        {
          "internalType": "bytes",
          "name": "",
          "type": "bytes"
        }
      ],
      "stateMutability": "view",
      "type": "function",
      "constant": true
    },
    {
      "inputs": [],
      "name": "priceOfUrl",
      "outputs": [
        {
          "internalType": "uint256",
          "name": "",
          "type": "uint256"
        }
      ],
      "stateMutability": "view",
      "type": "function",
      "constant": true
    },
    {
      "inputs": [],
      "name": "initialize",
      "outputs": [],
      "stateMutability": "nonpayable",
      "type": "function"
    },
    {
      "inputs": [
        {
          "internalType": "string",
          "name": "_patientName",
          "type": "string"
        },
        {
          "internalType": "uint256",
          "name": "_patientAge",
          "type": "uint256"
        },
        {
          "internalType": "bool",
          "name": "_hasFever",
          "type": "bool"
        }
      ],
      "name": "createPatient",
      "outputs": [],
      "stateMutability": "payable",
      "type": "function",
      "payable": true
    },
    {
      "inputs": [],
      "name": "testPatient",
      "outputs": [],
      "stateMutability": "nonpayable",
      "type": "function"
    },
    {
      "inputs": [],
      "name": "getPatients",
      "outputs": [
        {
          "components": [
            {
              "internalType": "string",
              "name": "patientName",
              "type": "string"
            },
            {
              "internalType": "bool",
              "name": "hasFever",
              "type": "bool"
            },
            {
              "internalType": "uint256",
              "name": "patientAge",
              "type": "uint256"
            }
          ],
          "internalType": "struct Patient[]",
          "name": "",
          "type": "tuple[]"
        }
      ],
      "stateMutability": "view",
      "type": "function",
      "constant": true
    },
    {
      "inputs": [],
      "name": "getPatient",
      "outputs": [
        {
          "components": [
            {
              "internalType": "string",
              "name": "patientName",
              "type": "string"
            },
            {
              "internalType": "bool",
              "name": "hasFever",
              "type": "bool"
            },
            {
              "internalType": "uint256",
              "name": "patientAge",
              "type": "uint256"
            }
          ],
          "internalType": "struct Patient",
          "name": "",
          "type": "tuple"
        }
      ],
      "stateMutability": "view",
      "type": "function",
      "constant": true
    },
    {
      "inputs": [
        {
          "internalType": "bytes32",
          "name": "",
          "type": "bytes32"
        },
        {
          "internalType": "string",
          "name": "result",
          "type": "string"
        }
      ],
      "name": "__callback",
      "outputs": [],
      "stateMutability": "nonpayable",
      "type": "function"
    },
    {
      "inputs": [
        {
          "internalType": "bytes32",
          "name": "_myid",
          "type": "bytes32"
        },
        {
          "internalType": "string",
          "name": "_result",
          "type": "string"
        },
        {
          "internalType": "bytes",
          "name": "_proof",
          "type": "bytes"
        }
      ],
      "name": "__callback",
      "outputs": [],
      "stateMutability": "nonpayable",
      "type": "function"
    },
    {
      "inputs": [],
      "name": "getInfectedNumber",
      "outputs": [
        {
          "internalType": "bytes",
          "name": "",
          "type": "bytes"
        }
      ],
      "stateMutability": "view",
      "type": "function",
      "constant": true
    },
    {
      "inputs": [],
      "name": "getInfected",
      "outputs": [],
      "stateMutability": "payable",
      "type": "function",
      "payable": true
    },
    {
      "inputs": [],
      "name": "getInfectedNumberUint",
      "outputs": [
        {
          "internalType": "uint256",
          "name": "",
          "type": "uint256"
        }
      ],
      "stateMutability": "view",
      "type": "function",
      "constant": true
    },
    {
      "inputs": [
        {
          "internalType": "bytes",
          "name": "input",
          "type": "bytes"
        }
      ],
      "name": "convertToUint",
      "outputs": [
        {
          "internalType": "uint256",
          "name": "",
          "type": "uint256"
        }
      ],
      "stateMutability": "pure",
      "type": "function",
      "constant": true
    }
  ],
  "bytecode": "0x608060405234801561001057600080fd5b50613649806100206000396000f3fe6080604052600436106100c25760003560e01c80636865856c1161007f5780637b0f9a36116100595780637b0f9a36146102285780638129fc1c14610253578063b1f19b371461026a578063ee4b3dbe14610281576100c2565b80636865856c146101b65780636c196f38146101f3578063724a1b3f1461021e576100c2565b806312ad1c37146100c757806327dc297e146100f25780632839de5b1461011b57806338bbfa501461013757806343d3b1be146101605780634a70a9d91461018b575b600080fd5b3480156100d357600080fd5b506100dc6102ac565b6040516100e991906128b5565b60405180910390f35b3480156100fe57600080fd5b50610119600480360381019061011491906122f1565b61040a565b005b61013560048036038101906101309190612405565b610464565b005b34801561014357600080fd5b5061015e60048036038101906101599190612345565b61073d565b005b34801561016c57600080fd5b50610175610760565b6040516101829190612a72565b60405180910390f35b34801561019757600080fd5b506101a0610766565b6040516101ad9190612907565b60405180910390f35b3480156101c257600080fd5b506101dd60048036038101906101d891906123c4565b6107f4565b6040516101ea9190612a72565b60405180910390f35b3480156101ff57600080fd5b5061020861087f565b6040516102159190612907565b60405180910390f35b610226610911565b005b34801561023457600080fd5b5061023d6109f4565b60405161024a9190612a50565b60405180910390f35b34801561025f57600080fd5b50610268610b92565b005b34801561027657600080fd5b5061027f610d3d565b005b34801561028d57600080fd5b50610296610d56565b6040516102a39190612a72565b60405180910390f35b60606000603b80549050116102f6576040517f08c379a00000000000000000000000000000000000000000000000000000000081526004016102ed90612a30565b60405180910390fd5b603b805480602002602001604051908101604052809291908181526020016000905b82821015610401578382906000526020600020906003020160405180606001604052908160008201805461034b90612d76565b80601f016020809104026020016040519081016040528092919081815260200182805461037790612d76565b80156103c45780601f10610399576101008083540402835291602001916103c4565b820191906000526020600020905b8154815290600101906020018083116103a757829003601f168201915b505050505081526020016001820160009054906101000a900460ff1615151515815260200160028201548152505081526020019060010190610318565b50505050905090565b610412610df0565b73ffffffffffffffffffffffffffffffffffffffff163373ffffffffffffffffffffffffffffffffffffffff161461044957600080fd5b80603e908051906020019061045f929190611fba565b505050565b66b1a2bc2ec50000803410156104af576040517f08c379a00000000000000000000000000000000000000000000000000000000081526004016104a6906129f0565b60405180910390fd5b60008310156104f3576040517f08c379a00000000000000000000000000000000000000000000000000000000081526004016104ea90612990565b60405180910390fd5b6000603860003373ffffffffffffffffffffffffffffffffffffffff1673ffffffffffffffffffffffffffffffffffffffff16815260200190815260200160002060405180606001604052908160008201805461054f90612d76565b80601f016020809104026020016040519081016040528092919081815260200182805461057b90612d76565b80156105c85780601f1061059d576101008083540402835291602001916105c8565b820191906000526020600020905b8154815290600101906020018083116105ab57829003601f168201915b505050505081526020016001820160009054906101000a900460ff1615151515815260200160028201548152505090508481600001819052508381604001818152505082816020019015159081151581525050603b8190806001815401808255809150506001900390600052602060002090600302016000909190919091506000820151816000019080519060200190610663929190612040565b5060208201518160010160006101000a81548160ff02191690831515021790555060408201518160020155505060006001603b805490506106a49190612c9c565b9050336039600083815260200190815260200160002060006101000a81548173ffffffffffffffffffffffffffffffffffffffff021916908373ffffffffffffffffffffffffffffffffffffffff1602179055507fec499d8cef6f0cdeb621d90f65a7a9745ea16490621bfda0daab4d5f0229863c8187863360405161072d9493929190612a8d565b60405180910390a1505050505050565b6000801b600360008060001b815260200190815260200160002081905550505050565b603f5481565b603e805461077390612d76565b80601f016020809104026020016040519081016040528092919081815260200182805461079f90612d76565b80156107ec5780601f106107c1576101008083540402835291602001916107ec565b820191906000526020600020905b8154815290600101906020018083116107cf57829003601f168201915b505050505081565b6000806000905060005b835181101561087557838181518110610840577f4e487b7100000000000000000000000000000000000000000000000000000000600052603260045260246000fd5b602001015160f81c60f81b60f81c60ff16600883901b6108609190612bec565b9150808061086d90612da8565b9150506107fe565b5080915050919050565b6060603e805461088e90612d76565b80601f01602080910402602001604051908101604052809291908181526020018280546108ba90612d76565b80156109075780601f106108dc57610100808354040283529160200191610907565b820191906000526020600020905b8154815290600101906020018083116108ea57829003601f168201915b5050505050905090565b61094f6040518060400160405280600381526020017f55524c0000000000000000000000000000000000000000000000000000000000815250611104565b603f81905550603f5447101561099a576040517f08c379a0000000000000000000000000000000000000000000000000000000008152600401610991906129d0565b60405180910390fd5b6109f16040518060400160405280600381526020017f55524c00000000000000000000000000000000000000000000000000000000008152506040518060c001604052806087815260200161358d60879139611425565b50565b6109fc6120c6565b6000603b8054905011610a44576040517f08c379a0000000000000000000000000000000000000000000000000000000008152600401610a3b906129b0565b60405180910390fd5b603b603a60003373ffffffffffffffffffffffffffffffffffffffff1673ffffffffffffffffffffffffffffffffffffffff1681526020019081526020016000205481548110610abd577f4e487b7100000000000000000000000000000000000000000000000000000000600052603260045260246000fd5b9060005260206000209060030201604051806060016040529081600082018054610ae690612d76565b80601f0160208091040260200160405190810160405280929190818152602001828054610b1290612d76565b8015610b5f5780601f10610b3457610100808354040283529160200191610b5f565b820191906000526020600020905b815481529060010190602001808311610b4257829003601f168201915b505050505081526020016001820160009054906101000a900460ff16151515158152602001600282015481525050905090565b600560019054906101000a900460ff1680610bb15750610bb0611834565b5b80610bc95750600560009054906101000a900460ff16155b610c08576040517f08c379a0000000000000000000000000000000000000000000000000000000008152600401610bff90612a10565b60405180910390fd5b6000600560019054906101000a900460ff161590508015610c5a576001600560016101000a81548160ff0219169083151502179055506001600560006101000a81548160ff0219169083151502179055505b604051610c66906120e9565b604051809103906000f080158015610c82573d6000803e3d6000fd5b50603c60006101000a81548173ffffffffffffffffffffffffffffffffffffffff021916908373ffffffffffffffffffffffffffffffffffffffff16021790555073616dac0287ce79a3a53756205b993f09c92752d9603d60006101000a81548173ffffffffffffffffffffffffffffffffffffffff021916908373ffffffffffffffffffffffffffffffffffffffff1602179055508015610d3a576000600560016101000a81548160ff0219169083151502179055505b50565b6000610d476109f4565b9050610d528161184b565b5050565b6000610deb603e8054610d6890612d76565b80601f0160208091040260200160405190810160405280929190818152602001828054610d9490612d76565b8015610de15780601f10610db657610100808354040283529160200191610de1565b820191906000526020600020905b815481529060010190602001808311610dc457829003601f168201915b50505050506107f4565b905090565b60008073ffffffffffffffffffffffffffffffffffffffff16600160009054906101000a900473ffffffffffffffffffffffffffffffffffffffff1673ffffffffffffffffffffffffffffffffffffffff161480610e7857506000610e76600160009054906101000a900473ffffffffffffffffffffffffffffffffffffffff16611a2d565b145b15610e8957610e876000611a38565b505b600160009054906101000a900473ffffffffffffffffffffffffffffffffffffffff1673ffffffffffffffffffffffffffffffffffffffff166338cc48316040518163ffffffff1660e01b8152600401602060405180830381600087803b158015610ef357600080fd5b505af1158015610f07573d6000803e3d6000fd5b505050506040513d601f19601f82011682018060405250810190610f2b9190612276565b73ffffffffffffffffffffffffffffffffffffffff1660008054906101000a900473ffffffffffffffffffffffffffffffffffffffff1673ffffffffffffffffffffffffffffffffffffffff161461105f57600160009054906101000a900473ffffffffffffffffffffffffffffffffffffffff1673ffffffffffffffffffffffffffffffffffffffff166338cc48316040518163ffffffff1660e01b8152600401602060405180830381600087803b158015610fe757600080fd5b505af1158015610ffb573d6000803e3d6000fd5b505050506040513d601f19601f8201168201806040525081019061101f9190612276565b6000806101000a81548173ffffffffffffffffffffffffffffffffffffffff021916908373ffffffffffffffffffffffffffffffffffffffff1602179055505b60008054906101000a900473ffffffffffffffffffffffffffffffffffffffff1673ffffffffffffffffffffffffffffffffffffffff1663c281d19e6040518163ffffffff1660e01b8152600401602060405180830381600087803b1580156110c757600080fd5b505af11580156110db573d6000803e3d6000fd5b505050506040513d601f19601f820116820180604052508101906110ff9190612276565b905090565b60008073ffffffffffffffffffffffffffffffffffffffff16600160009054906101000a900473ffffffffffffffffffffffffffffffffffffffff1673ffffffffffffffffffffffffffffffffffffffff16148061118c5750600061118a600160009054906101000a900473ffffffffffffffffffffffffffffffffffffffff16611a2d565b145b1561119d5761119b6000611a38565b505b600160009054906101000a900473ffffffffffffffffffffffffffffffffffffffff1673ffffffffffffffffffffffffffffffffffffffff166338cc48316040518163ffffffff1660e01b8152600401602060405180830381600087803b15801561120757600080fd5b505af115801561121b573d6000803e3d6000fd5b505050506040513d601f19601f8201168201806040525081019061123f9190612276565b73ffffffffffffffffffffffffffffffffffffffff1660008054906101000a900473ffffffffffffffffffffffffffffffffffffffff1673ffffffffffffffffffffffffffffffffffffffff161461137357600160009054906101000a900473ffffffffffffffffffffffffffffffffffffffff1673ffffffffffffffffffffffffffffffffffffffff166338cc48316040518163ffffffff1660e01b8152600401602060405180830381600087803b1580156112fb57600080fd5b505af115801561130f573d6000803e3d6000fd5b505050506040513d601f19601f820116820180604052508101906113339190612276565b6000806101000a81548173ffffffffffffffffffffffffffffffffffffffff021916908373ffffffffffffffffffffffffffffffffffffffff1602179055505b60008054906101000a900473ffffffffffffffffffffffffffffffffffffffff1673ffffffffffffffffffffffffffffffffffffffff1663524f3889836040518263ffffffff1660e01b81526004016113cc919061296e565b602060405180830381600087803b1580156113e657600080fd5b505af11580156113fa573d6000803e3d6000fd5b505050506040513d601f19601f8201168201806040525081019061141e919061246c565b9050919050565b60008073ffffffffffffffffffffffffffffffffffffffff16600160009054906101000a900473ffffffffffffffffffffffffffffffffffffffff1673ffffffffffffffffffffffffffffffffffffffff1614806114ad575060006114ab600160009054906101000a900473ffffffffffffffffffffffffffffffffffffffff16611a2d565b145b156114be576114bc6000611a38565b505b600160009054906101000a900473ffffffffffffffffffffffffffffffffffffffff1673ffffffffffffffffffffffffffffffffffffffff166338cc48316040518163ffffffff1660e01b8152600401602060405180830381600087803b15801561152857600080fd5b505af115801561153c573d6000803e3d6000fd5b505050506040513d601f19601f820116820180604052508101906115609190612276565b73ffffffffffffffffffffffffffffffffffffffff1660008054906101000a900473ffffffffffffffffffffffffffffffffffffffff1673ffffffffffffffffffffffffffffffffffffffff161461169457600160009054906101000a900473ffffffffffffffffffffffffffffffffffffffff1673ffffffffffffffffffffffffffffffffffffffff166338cc48316040518163ffffffff1660e01b8152600401602060405180830381600087803b15801561161c57600080fd5b505af1158015611630573d6000803e3d6000fd5b505050506040513d601f19601f820116820180604052508101906116549190612276565b6000806101000a81548173ffffffffffffffffffffffffffffffffffffffff021916908373ffffffffffffffffffffffffffffffffffffffff1602179055505b60008060009054906101000a900473ffffffffffffffffffffffffffffffffffffffff1673ffffffffffffffffffffffffffffffffffffffff1663524f3889856040518263ffffffff1660e01b81526004016116f0919061296e565b602060405180830381600087803b15801561170a57600080fd5b505af115801561171e573d6000803e3d6000fd5b505050506040513d601f19601f82011682018060405250810190611742919061246c565b905062030d403a6117539190612c42565b670de0b6b3a76400006117669190612bec565b811115611779576000801b91505061182e565b60008054906101000a900473ffffffffffffffffffffffffffffffffffffffff1673ffffffffffffffffffffffffffffffffffffffff1663adf59f9982600087876040518563ffffffff1660e01b81526004016117d893929190612929565b6020604051808303818588803b1580156117f157600080fd5b505af1158015611805573d6000803e3d6000fd5b50505050506040513d601f19601f8201168201806040525081019061182a91906122c8565b9150505b92915050565b6000803090506000813b9050600081149250505090565b600080603b8054905011611894576040517f08c379a000000000000000000000000000000000000000000000000000000000815260040161188b906129b0565b60405180910390fd5b7f60ced1a12efb84c0524a2d2592407b1b6b6c6480fd205680a277aa27501a4471603c60009054906101000a900473ffffffffffffffffffffffffffffffffffffffff1673ffffffffffffffffffffffffffffffffffffffff16634e8e3989846040518263ffffffff1660e01b81526004016119109190612a50565b60206040518083038186803b15801561192857600080fd5b505afa15801561193c573d6000803e3d6000fd5b505050506040513d601f19601f82011682018060405250810190611960919061229f565b83600001516040516119739291906128d7565b60405180910390a1603c60009054906101000a900473ffffffffffffffffffffffffffffffffffffffff1673ffffffffffffffffffffffffffffffffffffffff16634e8e3989836040518263ffffffff1660e01b81526004016119d69190612a50565b60206040518083038186803b1580156119ee57600080fd5b505afa158015611a02573d6000803e3d6000fd5b505050506040513d601f19601f82011682018060405250810190611a26919061229f565b9050919050565b6000813b9050919050565b6000611a42611a49565b9050919050565b600080611a69731d3b2638a7cc9f2cb3d298a3da7a90b67e5506ed611a2d565b1115611b0b57731d3b2638a7cc9f2cb3d298a3da7a90b67e5506ed600160006101000a81548173ffffffffffffffffffffffffffffffffffffffff021916908373ffffffffffffffffffffffffffffffffffffffff160217905550611b026040518060400160405280600b81526020017f6574685f6d61696e6e6574000000000000000000000000000000000000000000815250611fa0565b60019050611f9d565b6000611b2a73c03a2615d5efaf5f49f60b7bb6583eaec212fdf1611a2d565b1115611bcc5773c03a2615d5efaf5f49f60b7bb6583eaec212fdf1600160006101000a81548173ffffffffffffffffffffffffffffffffffffffff021916908373ffffffffffffffffffffffffffffffffffffffff160217905550611bc36040518060400160405280600c81526020017f6574685f726f707374656e330000000000000000000000000000000000000000815250611fa0565b60019050611f9d565b6000611beb73b7a07bcf2ba2f2703b24c0691b5278999c59ac7e611a2d565b1115611c8d5773b7a07bcf2ba2f2703b24c0691b5278999c59ac7e600160006101000a81548173ffffffffffffffffffffffffffffffffffffffff021916908373ffffffffffffffffffffffffffffffffffffffff160217905550611c846040518060400160405280600981526020017f6574685f6b6f76616e0000000000000000000000000000000000000000000000815250611fa0565b60019050611f9d565b6000611cac73146500cfd35b22e4a392fe0adc06de1a1368ed48611a2d565b1115611d4e5773146500cfd35b22e4a392fe0adc06de1a1368ed48600160006101000a81548173ffffffffffffffffffffffffffffffffffffffff021916908373ffffffffffffffffffffffffffffffffffffffff160217905550611d456040518060400160405280600b81526020017f6574685f72696e6b656279000000000000000000000000000000000000000000815250611fa0565b60019050611f9d565b6000611d6d73a2998efd205fb9d4b4963afb70778d6354ad3a41611a2d565b1115611e0f5773a2998efd205fb9d4b4963afb70778d6354ad3a41600160006101000a81548173ffffffffffffffffffffffffffffffffffffffff021916908373ffffffffffffffffffffffffffffffffffffffff160217905550611e066040518060400160405280600a81526020017f6574685f676f65726c6900000000000000000000000000000000000000000000815250611fa0565b60019050611f9d565b6000611e2e736f485c8bf6fc43ea212e93bbf8ce046c7f1cb475611a2d565b1115611e9257736f485c8bf6fc43ea212e93bbf8ce046c7f1cb475600160006101000a81548173ffffffffffffffffffffffffffffffffffffffff021916908373ffffffffffffffffffffffffffffffffffffffff16021790555060019050611f9d565b6000611eb17320e12a1f859b3feae5fb2a0a32c18f5a65555bbf611a2d565b1115611f15577320e12a1f859b3feae5fb2a0a32c18f5a65555bbf600160006101000a81548173ffffffffffffffffffffffffffffffffffffffff021916908373ffffffffffffffffffffffffffffffffffffffff16021790555060019050611f9d565b6000611f347351efaf4c8b3c9afbd5ab9f4bbc82784ab6ef8faa611a2d565b1115611f98577351efaf4c8b3c9afbd5ab9f4bbc82784ab6ef8faa600160006101000a81548173ffffffffffffffffffffffffffffffffffffffff021916908373ffffffffffffffffffffffffffffffffffffffff16021790555060019050611f9d565b600090505b90565b8060029080519060200190611fb6929190612040565b5050565b828054611fc690612d76565b90600052602060002090601f016020900481019282611fe8576000855561202f565b82601f1061200157805160ff191683800117855561202f565b8280016001018555821561202f579182015b8281111561202e578251825591602001919060010190612013565b5b50905061203c91906120f6565b5090565b82805461204c90612d76565b90600052602060002090601f01602090048101928261206e57600085556120b5565b82601f1061208757805160ff19168380011785556120b5565b828001600101855582156120b5579182015b828111156120b4578251825591602001919060010190612099565b5b5090506120c291906120f6565b5090565b604051806060016040528060608152602001600015158152602001600081525090565b6106a180612eec83390190565b5b8082111561210f5760008160009055506001016120f7565b5090565b600061212661212184612b0a565b612ad9565b90508281526020810184848401111561213e57600080fd5b612149848285612d34565b509392505050565b600061216461215f84612b3a565b612ad9565b90508281526020810184848401111561217c57600080fd5b612187848285612d34565b509392505050565b60008151905061219e81612e8f565b92915050565b6000813590506121b381612ea6565b92915050565b6000815190506121c881612ea6565b92915050565b6000813590506121dd81612ebd565b92915050565b6000815190506121f281612ebd565b92915050565b600082601f83011261220957600080fd5b8135612219848260208601612113565b91505092915050565b600082601f83011261223357600080fd5b8135612243848260208601612151565b91505092915050565b60008135905061225b81612ed4565b92915050565b60008151905061227081612ed4565b92915050565b60006020828403121561228857600080fd5b60006122968482850161218f565b91505092915050565b6000602082840312156122b157600080fd5b60006122bf848285016121b9565b91505092915050565b6000602082840312156122da57600080fd5b60006122e8848285016121e3565b91505092915050565b6000806040838503121561230457600080fd5b6000612312858286016121ce565b925050602083013567ffffffffffffffff81111561232f57600080fd5b61233b85828601612222565b9150509250929050565b60008060006060848603121561235a57600080fd5b6000612368868287016121ce565b935050602084013567ffffffffffffffff81111561238557600080fd5b61239186828701612222565b925050604084013567ffffffffffffffff8111156123ae57600080fd5b6123ba868287016121f8565b9150509250925092565b6000602082840312156123d657600080fd5b600082013567ffffffffffffffff8111156123f057600080fd5b6123fc848285016121f8565b91505092915050565b60008060006060848603121561241a57600080fd5b600084013567ffffffffffffffff81111561243457600080fd5b61244086828701612222565b93505060206124518682870161224c565b9250506040612462868287016121a4565b9150509250925092565b60006020828403121561247e57600080fd5b600061248c84828501612261565b91505092915050565b60006124a183836127f7565b905092915050565b6124b281612cd0565b82525050565b60006124c382612b7a565b6124cd8185612ba8565b9350836020820285016124df85612b6a565b8060005b8581101561251b57848403895281516124fc8582612495565b945061250783612b9b565b925060208a019950506001810190506124e3565b50829750879550505050505092915050565b61253681612ce2565b82525050565b61254581612ce2565b82525050565b600061255682612b85565b6125608185612bb9565b9350612570818560208601612d43565b61257981612e7e565b840191505092915050565b61258d81612d22565b82525050565b600061259e82612b90565b6125a88185612bca565b93506125b8818560208601612d43565b6125c181612e7e565b840191505092915050565b60006125d782612b90565b6125e18185612bdb565b93506125f1818560208601612d43565b6125fa81612e7e565b840191505092915050565b6000612612600b83612bdb565b91507f696e76616c6964204167650000000000000000000000000000000000000000006000830152602082019050919050565b6000612652602083612bdb565b91507f4e6f2070617469656e7420617661696c61626c6520666f72206c6f6f6b75702e6000830152602082019050919050565b6000612692602e83612bdb565b91507f706c656173652061646420736f6d652045544820746f20636f76657220666f7260008301527f20746865207175657279206665650000000000000000000000000000000000006020830152604082019050919050565b60006126f8601383612bdb565b91507f4e6f7420656e6f756768204554482073656e64000000000000000000000000006000830152602082019050919050565b6000612738602e83612bdb565b91507f436f6e747261637420696e7374616e63652068617320616c726561647920626560008301527f656e20696e697469616c697a65640000000000000000000000000000000000006020830152604082019050919050565b600061279e602183612bdb565b91507f4e6f2070617469656e747320617661696c61626c6520666f72206c6f6f6b757060008301527f2e000000000000000000000000000000000000000000000000000000000000006020830152604082019050919050565b600060608301600083015184820360008601526128148282612593565b9150506020830151612829602086018261252d565b50604083015161283c6040860182612897565b508091505092915050565b600060608301600083015184820360008601526128648282612593565b9150506020830151612879602086018261252d565b50604083015161288c6040860182612897565b508091505092915050565b6128a081612d18565b82525050565b6128af81612d18565b82525050565b600060208201905081810360008301526128cf81846124b8565b905092915050565b60006040820190506128ec600083018561253c565b81810360208301526128fe81846125cc565b90509392505050565b60006020820190508181036000830152612921818461254b565b905092915050565b600060608201905061293e6000830186612584565b818103602083015261295081856125cc565b9050818103604083015261296481846125cc565b9050949350505050565b6000602082019050818103600083015261298881846125cc565b905092915050565b600060208201905081810360008301526129a981612605565b9050919050565b600060208201905081810360008301526129c981612645565b9050919050565b600060208201905081810360008301526129e981612685565b9050919050565b60006020820190508181036000830152612a09816126eb565b9050919050565b60006020820190508181036000830152612a298161272b565b9050919050565b60006020820190508181036000830152612a4981612791565b9050919050565b60006020820190508181036000830152612a6a8184612847565b905092915050565b6000602082019050612a8760008301846128a6565b92915050565b6000608082019050612aa260008301876128a6565b8181036020830152612ab481866125cc565b9050612ac3604083018561253c565b612ad060608301846124a9565b95945050505050565b6000604051905081810181811067ffffffffffffffff82111715612b0057612aff612e4f565b5b8060405250919050565b600067ffffffffffffffff821115612b2557612b24612e4f565b5b601f19601f8301169050602081019050919050565b600067ffffffffffffffff821115612b5557612b54612e4f565b5b601f19601f8301169050602081019050919050565b6000819050602082019050919050565b600081519050919050565b600081519050919050565b600081519050919050565b6000602082019050919050565b600082825260208201905092915050565b600082825260208201905092915050565b600082825260208201905092915050565b600082825260208201905092915050565b6000612bf782612d18565b9150612c0283612d18565b9250827fffffffffffffffffffffffffffffffffffffffffffffffffffffffffffffffff03821115612c3757612c36612df1565b5b828201905092915050565b6000612c4d82612d18565b9150612c5883612d18565b9250817fffffffffffffffffffffffffffffffffffffffffffffffffffffffffffffffff0483118215151615612c9157612c90612df1565b5b828202905092915050565b6000612ca782612d18565b9150612cb283612d18565b925082821015612cc557612cc4612df1565b5b828203905092915050565b6000612cdb82612cf8565b9050919050565b60008115159050919050565b6000819050919050565b600073ffffffffffffffffffffffffffffffffffffffff82169050919050565b6000819050919050565b6000612d2d82612d18565b9050919050565b82818337600083830152505050565b60005b83811015612d61578082015181840152602081019050612d46565b83811115612d70576000848401525b50505050565b60006002820490506001821680612d8e57607f821691505b60208210811415612da257612da1612e20565b5b50919050565b6000612db382612d18565b91507fffffffffffffffffffffffffffffffffffffffffffffffffffffffffffffffff821415612de657612de5612df1565b5b600182019050919050565b7f4e487b7100000000000000000000000000000000000000000000000000000000600052601160045260246000fd5b7f4e487b7100000000000000000000000000000000000000000000000000000000600052602260045260246000fd5b7f4e487b7100000000000000000000000000000000000000000000000000000000600052604160045260246000fd5b6000601f19601f8301169050919050565b612e9881612cd0565b8114612ea357600080fd5b50565b612eaf81612ce2565b8114612eba57600080fd5b50565b612ec681612cee565b8114612ed157600080fd5b50565b612edd81612d18565b8114612ee857600080fd5b5056fe608060405234801561001057600080fd5b50610681806100206000396000f3fe608060405234801561001057600080fd5b50600436106100365760003560e01c80634e8e39891461003b5780638129fc1c1461006b575b600080fd5b61005560048036038101906100509190610346565b610075565b60405161006291906104b3565b60405180910390f35b61007361013d565b005b60006040516020016100869061049e565b6040516020818303038152906040528051906020012082600001516040516020016100b19190610487565b604051602081830303815290604052805190602001201415610108576040517f08c379a00000000000000000000000000000000000000000000000000000000081526004016100ff906104ce565b60405180910390fd5b601282604001511015801561012557506001151582602001511515145b156101335760019050610138565b600090505b919050565b600060019054906101000a900460ff168061015c575061015b610225565b5b80610172575060008054906101000a900460ff16155b6101b1576040517f08c379a00000000000000000000000000000000000000000000000000000000081526004016101a8906104ee565b60405180910390fd5b60008060019054906101000a900460ff161590508015610201576001600060016101000a81548160ff02191690831515021790555060016000806101000a81548160ff0219169083151502179055505b80156102225760008060016101000a81548160ff0219169083151502179055505b50565b6000803090506000813b9050600081149250505090565b600061024f61024a8461053f565b61050e565b90508281526020810184848401111561026757600080fd5b6102728482856105ac565b509392505050565b6000813590506102898161061d565b92915050565b600082601f8301126102a057600080fd5b81356102b084826020860161023c565b91505092915050565b6000606082840312156102cb57600080fd5b6102d5606061050e565b9050600082013567ffffffffffffffff8111156102f157600080fd5b6102fd8482850161028f565b60008301525060206103118482850161027a565b602083015250604061032584828501610331565b60408301525092915050565b60008135905061034081610634565b92915050565b60006020828403121561035857600080fd5b600082013567ffffffffffffffff81111561037257600080fd5b61037e848285016102b9565b91505092915050565b61039081610596565b82525050565b60006103a18261056f565b6103ab818561058b565b93506103bb8185602086016105bb565b80840191505092915050565b60006103d460118361057a565b91507f50617469656e74206e6f7420666f756e640000000000000000000000000000006000830152602082019050919050565b6000610414602e8361057a565b91507f436f6e747261637420696e7374616e63652068617320616c726561647920626560008301527f656e20696e697469616c697a65640000000000000000000000000000000000006020830152604082019050919050565b600061047a60008361058b565b9150600082019050919050565b60006104938284610396565b915081905092915050565b60006104a98261046d565b9150819050919050565b60006020820190506104c86000830184610387565b92915050565b600060208201905081810360008301526104e7816103c7565b9050919050565b6000602082019050818103600083015261050781610407565b9050919050565b6000604051905081810181811067ffffffffffffffff82111715610535576105346105ee565b5b8060405250919050565b600067ffffffffffffffff82111561055a576105596105ee565b5b601f19601f8301169050602081019050919050565b600081519050919050565b600082825260208201905092915050565b600081905092915050565b60008115159050919050565b6000819050919050565b82818337600083830152505050565b60005b838110156105d95780820151818401526020810190506105be565b838111156105e8576000848401525b50505050565b7f4e487b7100000000000000000000000000000000000000000000000000000000600052604160045260246000fd5b61062681610596565b811461063157600080fd5b50565b61063d816105a2565b811461064857600080fd5b5056fea2646970667358221220d0b71ff0e76e08a33e8b7912f028c130ef21fc31a0813b23acb13b5b7d8d4fa964736f6c634300080000336a736f6e2868747470733a2f2f6170692e61706966792e636f6d2f76322f6b65792d76616c75652d73746f7265732f76716e4555653756744b4e4d71477146462f7265636f7264732f4c41544553543f64697361626c6552656469726563743d74727565292e696e6665637465644279526567696f6e5b305d2e696e666563746564436f756e74a2646970667358221220af17d1f51d19919e6811b6a34c2ebeef91984025f5d847fbdc3e2f23d0066ed264736f6c63430008000033",
  "immutableReferences": {},
  "source": "// SPDX-License-Identifier: MIT\n/// Based on https://solidity.readthedocs.io/en/develop/natspec-format.html\npragma solidity 0.8.0;\n\n/// @title A Covid-19 teststreet simulator for patients\n/// @author P. Sanchez github@17038634\n/// @notice The logic behind te contract is only for example purposes and cannot be used to diagnose\n\npragma experimental ABIEncoderV2;\nimport \"./provableAPI.sol\";\nimport \"./Patient.sol\";\nimport \"./CoronaTest.sol\";\nimport \"./Initializable.sol\";\n\ncontract TestStreet is usingProvable, Initializable {\n    /// @dev Emits the result of the new created patient\n    event newPatient(uint256 id, string name, bool hasFever, address _address);\n    /// @dev Emits the result of the Covid-19 test made by the patient\n    event testResult(bool hasCorona, string name);\n    mapping(address => Patient) addressToPatient;\n    mapping(uint256 => address) patientToOwner;\n    mapping(address => uint256) patientLookup;\n    Patient[] patients;\n    CoronaTest CT;\n    address owner;\n\n    modifier onlyOwner() {\n        require(msg.sender == owner, \"Must be owner\");\n        _;\n    }\n    modifier minAmount(uint256 _amount) {\n        require(msg.value >= _amount, \"Not enough ETH send\");\n        _;\n    }\n\n    bytes public infectedNumber;\n    uint256 public priceOfUrl;\n\n    function initialize() public initializer {\n        CT = new CoronaTest();\n        owner = address(0x616dAC0287cE79A3A53756205B993F09C92752D9);\n    }\n\n    /// @dev Function to create a new patient\n    function createPatient(\n        string memory _patientName,\n        uint256 _patientAge,\n        bool _hasFever\n    ) public payable minAmount(50000000000000000) {\n        require(_patientAge >= 0, \"invalid Age\");\n        Patient memory p = addressToPatient[msg.sender];\n        p.patientName = _patientName;\n        p.patientAge = _patientAge;\n        p.hasFever = _hasFever;\n        patients.push(p);\n        uint256 id = patients.length - 1;\n        patientToOwner[id] = msg.sender;\n        emit newPatient(id, _patientName, _hasFever, msg.sender);\n    }\n\n    /// @dev Function to test the patient of Covid-19\n    function testPatient() public {\n        Patient memory p = getPatient();\n        testPatient(p);\n    }\n\n    function testPatient(Patient memory _patient)\n        internal\n        returns (bool result)\n    {\n        require((patients.length > 0), \"No patient available for lookup.\");\n        emit testResult(CT.coronaTest(_patient), _patient.patientName);\n        return CT.coronaTest(_patient);\n    }\n\n    /// @dev Function to get the list of the patients\n    /// @return A list of Patients\n    function getPatients() public view returns (Patient[] memory) {\n        require((patients.length > 0), \"No patients available for lookup.\");\n        return patients;\n    }\n\n    /// @dev Function to get an specific patient\n    /// @return The specific looked up patient\n    function getPatient() public view returns (Patient memory) {\n        require((patients.length > 0), \"No patient available for lookup.\");\n        return patients[patientLookup[msg.sender]];\n    }\n\n    function __callback(\n        bytes32,\n        /* myid prevent warning*/\n        string memory result\n    ) public override {\n        if (msg.sender != provable_cbAddress()) revert();\n        infectedNumber = bytes(result);\n    }\n\n    function getInfectedNumber() public view returns (bytes memory) {\n        return infectedNumber;\n    }\n\n    function getInfected() public payable {\n        priceOfUrl = provable_getPrice(\"URL\");\n        require(\n            address(this).balance >= priceOfUrl,\n            \"please add some ETH to cover for the query fee\"\n        );\n        provable_query(\n            \"URL\",\n            \"json(https://api.apify.com/v2/key-value-stores/vqnEUe7VtKNMqGqFF/records/LATEST?disableRedirect=true).infectedByRegion[0].infectedCount\"\n        );\n    }\n\n    function getInfectedNumberUint() public view returns (uint256) {\n        return convertToUint(infectedNumber);\n    }\n\n    function convertToUint(bytes memory input) public pure returns (uint256) {\n        uint256 res = 0;\n        for (uint256 i = 0; i < input.length; i++)\n            res = (res << 8) + uint256(uint8(input[i]));\n        return res;\n    }\n\n    /*\n    /// @dev Function to destroy the contract\n    function destroy() public onlyOwner{\n        selfdestruct(payable (owner));\n    }*/\n}\n",
  "sourcePath": "C:/Users/Daddy/CoronaSystem/contracts/TestStreet.sol",
  "compiler": {
    "name": "solc",
    "version": "0.8.0+commit.c7dfd78e.Emscripten.clang"
  },
  "schemaVersion": "3.3.2",
  "updatedAt": "2021-01-07T21:49:34.794Z",
  "networkType": "ethereum",
  "devdoc": {
    "events": {
      "newPatient(uint256,string,bool,address)": {
        "details": "Emits the result of the new created patient"
      },
      "testResult(bool,string)": {
        "details": "Emits the result of the Covid-19 test made by the patient"
      }
    },
    "kind": "dev",
    "methods": {
      "createPatient(string,uint256,bool)": {
        "details": "Function to create a new patient"
      },
      "getPatient()": {
        "details": "Function to get an specific patient",
        "returns": {
          "_0": "The specific looked up patient"
        }
      },
      "getPatients()": {
        "details": "Function to get the list of the patients",
        "returns": {
          "_0": "A list of Patients"
        }
      },
      "testPatient()": {
        "details": "Function to test the patient of Covid-19"
      }
    },
    "version": 1
  },
  "userdoc": {
    "kind": "user",
    "methods": {},
    "version": 1
  }
}