{
  "contractName": "TestStreet",
  "abi": [
    {
      "inputs": [],
      "stateMutability": "payable",
      "type": "constructor",
      "payable": true
    },
    {
      "anonymous": false,
      "inputs": [
        {
          "indexed": false,
          "internalType": "uint256",
          "name": "id",
          "type": "uint256"
        },
        {
          "indexed": false,
          "internalType": "string",
          "name": "name",
          "type": "string"
        },
        {
          "indexed": false,
          "internalType": "bool",
          "name": "hasFever",
          "type": "bool"
        },
        {
          "indexed": false,
          "internalType": "address",
          "name": "_address",
          "type": "address"
        }
      ],
      "name": "newPatient",
      "type": "event"
    },
    {
      "anonymous": false,
      "inputs": [
        {
          "indexed": false,
          "internalType": "bool",
          "name": "hasCorona",
          "type": "bool"
        },
        {
          "indexed": false,
          "internalType": "string",
          "name": "name",
          "type": "string"
        }
      ],
      "name": "testResult",
      "type": "event"
    },
    {
      "inputs": [],
      "name": "infectedNumber",
      "outputs": [
        {
          "internalType": "bytes",
          "name": "",
          "type": "bytes"
        }
      ],
      "stateMutability": "view",
      "type": "function",
      "constant": true
    },
    {
      "inputs": [],
      "name": "priceOfUrl",
      "outputs": [
        {
          "internalType": "uint256",
          "name": "",
          "type": "uint256"
        }
      ],
      "stateMutability": "view",
      "type": "function",
      "constant": true
    },
    {
      "inputs": [
        {
          "internalType": "string",
          "name": "_patientName",
          "type": "string"
        },
        {
          "internalType": "uint256",
          "name": "_patientAge",
          "type": "uint256"
        },
        {
          "internalType": "bool",
          "name": "_hasFever",
          "type": "bool"
        }
      ],
      "name": "createPatient",
      "outputs": [],
      "stateMutability": "nonpayable",
      "type": "function"
    },
    {
      "inputs": [],
      "name": "testPatient",
      "outputs": [],
      "stateMutability": "nonpayable",
      "type": "function"
    },
    {
      "inputs": [],
      "name": "getPatients",
      "outputs": [
        {
          "components": [
            {
              "internalType": "string",
              "name": "patientName",
              "type": "string"
            },
            {
              "internalType": "bool",
              "name": "hasFever",
              "type": "bool"
            },
            {
              "internalType": "uint256",
              "name": "patientAge",
              "type": "uint256"
            }
          ],
          "internalType": "struct Patient[]",
          "name": "",
          "type": "tuple[]"
        }
      ],
      "stateMutability": "view",
      "type": "function",
      "constant": true
    },
    {
      "inputs": [],
      "name": "getPatient",
      "outputs": [
        {
          "components": [
            {
              "internalType": "string",
              "name": "patientName",
              "type": "string"
            },
            {
              "internalType": "bool",
              "name": "hasFever",
              "type": "bool"
            },
            {
              "internalType": "uint256",
              "name": "patientAge",
              "type": "uint256"
            }
          ],
          "internalType": "struct Patient",
          "name": "",
          "type": "tuple"
        }
      ],
      "stateMutability": "view",
      "type": "function",
      "constant": true
    },
    {
      "inputs": [
        {
          "internalType": "bytes32",
          "name": "",
          "type": "bytes32"
        },
        {
          "internalType": "string",
          "name": "result",
          "type": "string"
        }
      ],
      "name": "__callback",
      "outputs": [],
      "stateMutability": "nonpayable",
      "type": "function"
    },
    {
      "inputs": [
        {
          "internalType": "bytes32",
          "name": "_myid",
          "type": "bytes32"
        },
        {
          "internalType": "string",
          "name": "_result",
          "type": "string"
        },
        {
          "internalType": "bytes",
          "name": "_proof",
          "type": "bytes"
        }
      ],
      "name": "__callback",
      "outputs": [],
      "stateMutability": "nonpayable",
      "type": "function"
    },
    {
      "inputs": [],
      "name": "getInfectedNumber",
      "outputs": [
        {
          "internalType": "bytes",
          "name": "",
          "type": "bytes"
        }
      ],
      "stateMutability": "view",
      "type": "function",
      "constant": true
    },
    {
      "inputs": [],
      "name": "getInfected",
      "outputs": [],
      "stateMutability": "payable",
      "type": "function",
      "payable": true
    },
    {
      "inputs": [],
      "name": "getInfectedNumberUint",
      "outputs": [
        {
          "internalType": "uint256",
          "name": "",
          "type": "uint256"
        }
      ],
      "stateMutability": "view",
      "type": "function",
      "constant": true
    },
    {
      "inputs": [
        {
          "internalType": "bytes",
          "name": "input",
          "type": "bytes"
        }
      ],
      "name": "convertToUint",
      "outputs": [
        {
          "internalType": "uint256",
          "name": "",
          "type": "uint256"
        }
      ],
      "stateMutability": "pure",
      "type": "function",
      "constant": true
    }
  ],
  "bytecode": "0x608060405260405161001090610072565b604051809103906000f08015801561002c573d6000803e3d6000fd5b50600960006101000a81548173ffffffffffffffffffffffffffffffffffffffff021916908373ffffffffffffffffffffffffffffffffffffffff160217905550610080565b6104bc8062002b0483390190565b612a7480620000906000396000f3fe6080604052600436106100a75760003560e01c80636865856c116100645780636865856c146101a85780636c196f38146101e5578063724a1b3f146102105780637b0f9a361461021a578063b1f19b3714610245578063ee4b3dbe1461025c576100a7565b806312ad1c37146100ac57806327dc297e146100d75780632839de5b1461010057806338bbfa501461012957806343d3b1be146101525780634a70a9d91461017d575b600080fd5b3480156100b857600080fd5b506100c1610287565b6040516100ce9190612583565b60405180910390f35b3480156100e357600080fd5b506100fe60048036038101906100f99190612065565b6103f5565b005b34801561010c57600080fd5b5061012760048036038101906101229190612179565b61044f565b005b34801561013557600080fd5b50610150600480360381019061014b91906120b9565b6106e9565b005b34801561015e57600080fd5b5061016761070c565b6040516101749190612700565b60405180910390f35b34801561018957600080fd5b50610192610712565b60405161019f91906125d5565b60405180910390f35b3480156101b457600080fd5b506101cf60048036038101906101ca9190612138565b6107b0565b6040516101dc9190612700565b60405180910390f35b3480156101f157600080fd5b506101fa6107ff565b60405161020791906125d5565b60405180910390f35b6102186108a1565b005b34801561022657600080fd5b5061022f610984565b60405161023c91906126de565b60405180910390f35b34801561025157600080fd5b5061025a610b05565b005b34801561026857600080fd5b50610271610b24565b60405161027e9190612700565b60405180910390f35b60606000600880549050116102d1576040517f08c379a00000000000000000000000000000000000000000000000000000000081526004016102c8906126be565b60405180910390fd5b6008805480602002602001604051908101604052809291908181526020016000905b828210156103ec5783829060005260206000209060030201604051806060016040529081600082018054600181600116156101000203166002900480601f0160208091040260200160405190810160405280929190818152602001828054600181600116156101000203166002900480156103af5780601f10610384576101008083540402835291602001916103af565b820191906000526020600020905b81548152906001019060200180831161039257829003601f168201915b505050505081526020016001820160009054906101000a900460ff16151515158152602001600282015481525050815260200190600101906102f3565b50505050905090565b6103fd610bce565b73ffffffffffffffffffffffffffffffffffffffff163373ffffffffffffffffffffffffffffffffffffffff161461043457600080fd5b80600a908051906020019061044a929190611d6f565b505050565b6000821015610493576040517f08c379a000000000000000000000000000000000000000000000000000000000815260040161048a9061265e565b60405180910390fd5b61049b611def565b600560003373ffffffffffffffffffffffffffffffffffffffff1673ffffffffffffffffffffffffffffffffffffffff168152602001908152602001600020604051806060016040529081600082018054600181600116156101000203166002900480601f01602080910402602001604051908101604052809291908181526020018280546001816001161561010002031660029004801561057e5780601f106105535761010080835404028352916020019161057e565b820191906000526020600020905b81548152906001019060200180831161056157829003601f168201915b505050505081526020016001820160009054906101000a900460ff161515151581526020016002820154815250509050838160000181905250828160400181815250508181602001901515908115158152505060088190806001815401808255809150506001900390600052602060002090600302016000909190919091506000820151816000019080519060200190610619929190611e12565b5060208201518160010160006101000a81548160ff02191690831515021790555060408201518160020155505060006001600880549050039050336006600083815260200190815260200160002060006101000a81548173ffffffffffffffffffffffffffffffffffffffff021916908373ffffffffffffffffffffffffffffffffffffffff1602179055507fec499d8cef6f0cdeb621d90f65a7a9745ea16490621bfda0daab4d5f0229863c818685336040516106da949392919061271b565b60405180910390a15050505050565b6000801b600360008060001b815260200190815260200160002081905550505050565b600b5481565b600a8054600181600116156101000203166002900480601f0160208091040260200160405190810160405280929190818152602001828054600181600116156101000203166002900480156107a85780601f1061077d576101008083540402835291602001916107a8565b820191906000526020600020905b81548152906001019060200180831161078b57829003601f168201915b505050505081565b6000806000905060005b83518110156107f5578381815181106107cf57fe5b602001015160f81c60f81b60f81c60ff16600883901b01915080806001019150506107ba565b5080915050919050565b6060600a8054600181600116156101000203166002900480601f0160208091040260200160405190810160405280929190818152602001828054600181600116156101000203166002900480156108975780601f1061086c57610100808354040283529160200191610897565b820191906000526020600020905b81548152906001019060200180831161087a57829003601f168201915b5050505050905090565b6108df6040518060400160405280600381526020017f55524c0000000000000000000000000000000000000000000000000000000000815250610ee2565b600b81905550600b5447101561092a576040517f08c379a00000000000000000000000000000000000000000000000000000000081526004016109219061269e565b60405180910390fd5b6109816040518060400160405280600381526020017f55524c00000000000000000000000000000000000000000000000000000000008152506040518060c00160405280608781526020016129b860879139611203565b50565b61098c611def565b6000600880549050116109d4576040517f08c379a00000000000000000000000000000000000000000000000000000000081526004016109cb9061267e565b60405180910390fd5b6008600760003373ffffffffffffffffffffffffffffffffffffffff1673ffffffffffffffffffffffffffffffffffffffff1681526020019081526020016000205481548110610a2057fe5b9060005260206000209060030201604051806060016040529081600082018054600181600116156101000203166002900480601f016020809104026020016040519081016040528092919081815260200182805460018160011615610100020316600290048015610ad25780601f10610aa757610100808354040283529160200191610ad2565b820191906000526020600020905b815481529060010190602001808311610ab557829003601f168201915b505050505081526020016001820160009054906101000a900460ff16151515158152602001600282015481525050905090565b610b0d611def565b610b15610984565b9050610b2081611600565b5050565b6000610bc9600a8054600181600116156101000203166002900480601f016020809104026020016040519081016040528092919081815260200182805460018160011615610100020316600290048015610bbf5780601f10610b9457610100808354040283529160200191610bbf565b820191906000526020600020905b815481529060010190602001808311610ba257829003601f168201915b50505050506107b0565b905090565b60008073ffffffffffffffffffffffffffffffffffffffff16600160009054906101000a900473ffffffffffffffffffffffffffffffffffffffff1673ffffffffffffffffffffffffffffffffffffffff161480610c5657506000610c54600160009054906101000a900473ffffffffffffffffffffffffffffffffffffffff166117e2565b145b15610c6757610c6560006117ed565b505b600160009054906101000a900473ffffffffffffffffffffffffffffffffffffffff1673ffffffffffffffffffffffffffffffffffffffff166338cc48316040518163ffffffff1660e01b8152600401602060405180830381600087803b158015610cd157600080fd5b505af1158015610ce5573d6000803e3d6000fd5b505050506040513d601f19601f82011682018060405250810190610d099190611fea565b73ffffffffffffffffffffffffffffffffffffffff1660008054906101000a900473ffffffffffffffffffffffffffffffffffffffff1673ffffffffffffffffffffffffffffffffffffffff1614610e3d57600160009054906101000a900473ffffffffffffffffffffffffffffffffffffffff1673ffffffffffffffffffffffffffffffffffffffff166338cc48316040518163ffffffff1660e01b8152600401602060405180830381600087803b158015610dc557600080fd5b505af1158015610dd9573d6000803e3d6000fd5b505050506040513d601f19601f82011682018060405250810190610dfd9190611fea565b6000806101000a81548173ffffffffffffffffffffffffffffffffffffffff021916908373ffffffffffffffffffffffffffffffffffffffff1602179055505b60008054906101000a900473ffffffffffffffffffffffffffffffffffffffff1673ffffffffffffffffffffffffffffffffffffffff1663c281d19e6040518163ffffffff1660e01b8152600401602060405180830381600087803b158015610ea557600080fd5b505af1158015610eb9573d6000803e3d6000fd5b505050506040513d601f19601f82011682018060405250810190610edd9190611fea565b905090565b60008073ffffffffffffffffffffffffffffffffffffffff16600160009054906101000a900473ffffffffffffffffffffffffffffffffffffffff1673ffffffffffffffffffffffffffffffffffffffff161480610f6a57506000610f68600160009054906101000a900473ffffffffffffffffffffffffffffffffffffffff166117e2565b145b15610f7b57610f7960006117ed565b505b600160009054906101000a900473ffffffffffffffffffffffffffffffffffffffff1673ffffffffffffffffffffffffffffffffffffffff166338cc48316040518163ffffffff1660e01b8152600401602060405180830381600087803b158015610fe557600080fd5b505af1158015610ff9573d6000803e3d6000fd5b505050506040513d601f19601f8201168201806040525081019061101d9190611fea565b73ffffffffffffffffffffffffffffffffffffffff1660008054906101000a900473ffffffffffffffffffffffffffffffffffffffff1673ffffffffffffffffffffffffffffffffffffffff161461115157600160009054906101000a900473ffffffffffffffffffffffffffffffffffffffff1673ffffffffffffffffffffffffffffffffffffffff166338cc48316040518163ffffffff1660e01b8152600401602060405180830381600087803b1580156110d957600080fd5b505af11580156110ed573d6000803e3d6000fd5b505050506040513d601f19601f820116820180604052508101906111119190611fea565b6000806101000a81548173ffffffffffffffffffffffffffffffffffffffff021916908373ffffffffffffffffffffffffffffffffffffffff1602179055505b60008054906101000a900473ffffffffffffffffffffffffffffffffffffffff1673ffffffffffffffffffffffffffffffffffffffff1663524f3889836040518263ffffffff1660e01b81526004016111aa919061263c565b602060405180830381600087803b1580156111c457600080fd5b505af11580156111d8573d6000803e3d6000fd5b505050506040513d601f19601f820116820180604052508101906111fc91906121e0565b9050919050565b60008073ffffffffffffffffffffffffffffffffffffffff16600160009054906101000a900473ffffffffffffffffffffffffffffffffffffffff1673ffffffffffffffffffffffffffffffffffffffff16148061128b57506000611289600160009054906101000a900473ffffffffffffffffffffffffffffffffffffffff166117e2565b145b1561129c5761129a60006117ed565b505b600160009054906101000a900473ffffffffffffffffffffffffffffffffffffffff1673ffffffffffffffffffffffffffffffffffffffff166338cc48316040518163ffffffff1660e01b8152600401602060405180830381600087803b15801561130657600080fd5b505af115801561131a573d6000803e3d6000fd5b505050506040513d601f19601f8201168201806040525081019061133e9190611fea565b73ffffffffffffffffffffffffffffffffffffffff1660008054906101000a900473ffffffffffffffffffffffffffffffffffffffff1673ffffffffffffffffffffffffffffffffffffffff161461147257600160009054906101000a900473ffffffffffffffffffffffffffffffffffffffff1673ffffffffffffffffffffffffffffffffffffffff166338cc48316040518163ffffffff1660e01b8152600401602060405180830381600087803b1580156113fa57600080fd5b505af115801561140e573d6000803e3d6000fd5b505050506040513d601f19601f820116820180604052508101906114329190611fea565b6000806101000a81548173ffffffffffffffffffffffffffffffffffffffff021916908373ffffffffffffffffffffffffffffffffffffffff1602179055505b60008060009054906101000a900473ffffffffffffffffffffffffffffffffffffffff1673ffffffffffffffffffffffffffffffffffffffff1663524f3889856040518263ffffffff1660e01b81526004016114ce919061263c565b602060405180830381600087803b1580156114e857600080fd5b505af11580156114fc573d6000803e3d6000fd5b505050506040513d601f19601f8201168201806040525081019061152091906121e0565b905062030d403a02670de0b6b3a764000001811115611545576000801b9150506115fa565b60008054906101000a900473ffffffffffffffffffffffffffffffffffffffff1673ffffffffffffffffffffffffffffffffffffffff1663adf59f9982600087876040518563ffffffff1660e01b81526004016115a4939291906125f7565b6020604051808303818588803b1580156115bd57600080fd5b505af11580156115d1573d6000803e3d6000fd5b50505050506040513d601f19601f820116820180604052508101906115f6919061203c565b9150505b92915050565b60008060088054905011611649576040517f08c379a00000000000000000000000000000000000000000000000000000000081526004016116409061267e565b60405180910390fd5b7f60ced1a12efb84c0524a2d2592407b1b6b6c6480fd205680a277aa27501a4471600960009054906101000a900473ffffffffffffffffffffffffffffffffffffffff1673ffffffffffffffffffffffffffffffffffffffff16634e8e3989846040518263ffffffff1660e01b81526004016116c591906126de565b60206040518083038186803b1580156116dd57600080fd5b505afa1580156116f1573d6000803e3d6000fd5b505050506040513d601f19601f820116820180604052508101906117159190612013565b83600001516040516117289291906125a5565b60405180910390a1600960009054906101000a900473ffffffffffffffffffffffffffffffffffffffff1673ffffffffffffffffffffffffffffffffffffffff16634e8e3989836040518263ffffffff1660e01b815260040161178b91906126de565b60206040518083038186803b1580156117a357600080fd5b505afa1580156117b7573d6000803e3d6000fd5b505050506040513d601f19601f820116820180604052508101906117db9190612013565b9050919050565b6000813b9050919050565b60006117f76117fe565b9050919050565b60008061181e731d3b2638a7cc9f2cb3d298a3da7a90b67e5506ed6117e2565b11156118c057731d3b2638a7cc9f2cb3d298a3da7a90b67e5506ed600160006101000a81548173ffffffffffffffffffffffffffffffffffffffff021916908373ffffffffffffffffffffffffffffffffffffffff1602179055506118b76040518060400160405280600b81526020017f6574685f6d61696e6e6574000000000000000000000000000000000000000000815250611d55565b60019050611d52565b60006118df73c03a2615d5efaf5f49f60b7bb6583eaec212fdf16117e2565b11156119815773c03a2615d5efaf5f49f60b7bb6583eaec212fdf1600160006101000a81548173ffffffffffffffffffffffffffffffffffffffff021916908373ffffffffffffffffffffffffffffffffffffffff1602179055506119786040518060400160405280600c81526020017f6574685f726f707374656e330000000000000000000000000000000000000000815250611d55565b60019050611d52565b60006119a073b7a07bcf2ba2f2703b24c0691b5278999c59ac7e6117e2565b1115611a425773b7a07bcf2ba2f2703b24c0691b5278999c59ac7e600160006101000a81548173ffffffffffffffffffffffffffffffffffffffff021916908373ffffffffffffffffffffffffffffffffffffffff160217905550611a396040518060400160405280600981526020017f6574685f6b6f76616e0000000000000000000000000000000000000000000000815250611d55565b60019050611d52565b6000611a6173146500cfd35b22e4a392fe0adc06de1a1368ed486117e2565b1115611b035773146500cfd35b22e4a392fe0adc06de1a1368ed48600160006101000a81548173ffffffffffffffffffffffffffffffffffffffff021916908373ffffffffffffffffffffffffffffffffffffffff160217905550611afa6040518060400160405280600b81526020017f6574685f72696e6b656279000000000000000000000000000000000000000000815250611d55565b60019050611d52565b6000611b2273a2998efd205fb9d4b4963afb70778d6354ad3a416117e2565b1115611bc45773a2998efd205fb9d4b4963afb70778d6354ad3a41600160006101000a81548173ffffffffffffffffffffffffffffffffffffffff021916908373ffffffffffffffffffffffffffffffffffffffff160217905550611bbb6040518060400160405280600a81526020017f6574685f676f65726c6900000000000000000000000000000000000000000000815250611d55565b60019050611d52565b6000611be3736f485c8bf6fc43ea212e93bbf8ce046c7f1cb4756117e2565b1115611c4757736f485c8bf6fc43ea212e93bbf8ce046c7f1cb475600160006101000a81548173ffffffffffffffffffffffffffffffffffffffff021916908373ffffffffffffffffffffffffffffffffffffffff16021790555060019050611d52565b6000611c667320e12a1f859b3feae5fb2a0a32c18f5a65555bbf6117e2565b1115611cca577320e12a1f859b3feae5fb2a0a32c18f5a65555bbf600160006101000a81548173ffffffffffffffffffffffffffffffffffffffff021916908373ffffffffffffffffffffffffffffffffffffffff16021790555060019050611d52565b6000611ce97351efaf4c8b3c9afbd5ab9f4bbc82784ab6ef8faa6117e2565b1115611d4d577351efaf4c8b3c9afbd5ab9f4bbc82784ab6ef8faa600160006101000a81548173ffffffffffffffffffffffffffffffffffffffff021916908373ffffffffffffffffffffffffffffffffffffffff16021790555060019050611d52565b600090505b90565b8060029080519060200190611d6b929190611e12565b5050565b828054600181600116156101000203166002900490600052602060002090601f016020900481019282601f10611db057805160ff1916838001178555611dde565b82800160010185558215611dde579182015b82811115611ddd578251825591602001919060010190611dc2565b5b509050611deb9190611e92565b5090565b604051806060016040528060608152602001600015158152602001600081525090565b828054600181600116156101000203166002900490600052602060002090601f016020900481019282601f10611e5357805160ff1916838001178555611e81565b82800160010185558215611e81579182015b82811115611e80578251825591602001919060010190611e65565b5b509050611e8e9190611e92565b5090565b5b80821115611eab576000816000905550600101611e93565b5090565b600081519050611ebe8161295b565b92915050565b600081359050611ed381612972565b92915050565b600081519050611ee881612972565b92915050565b600081359050611efd81612989565b92915050565b600081519050611f1281612989565b92915050565b600082601f830112611f2957600080fd5b8135611f3c611f3782612794565b612767565b91508082526020830160208301858383011115611f5857600080fd5b611f63838284612908565b50505092915050565b600082601f830112611f7d57600080fd5b8135611f90611f8b826127c0565b612767565b91508082526020830160208301858383011115611fac57600080fd5b611fb7838284612908565b50505092915050565b600081359050611fcf816129a0565b92915050565b600081519050611fe4816129a0565b92915050565b600060208284031215611ffc57600080fd5b600061200a84828501611eaf565b91505092915050565b60006020828403121561202557600080fd5b600061203384828501611ed9565b91505092915050565b60006020828403121561204e57600080fd5b600061205c84828501611f03565b91505092915050565b6000806040838503121561207857600080fd5b600061208685828601611eee565b925050602083013567ffffffffffffffff8111156120a357600080fd5b6120af85828601611f6c565b9150509250929050565b6000806000606084860312156120ce57600080fd5b60006120dc86828701611eee565b935050602084013567ffffffffffffffff8111156120f957600080fd5b61210586828701611f6c565b925050604084013567ffffffffffffffff81111561212257600080fd5b61212e86828701611f18565b9150509250925092565b60006020828403121561214a57600080fd5b600082013567ffffffffffffffff81111561216457600080fd5b61217084828501611f18565b91505092915050565b60008060006060848603121561218e57600080fd5b600084013567ffffffffffffffff8111156121a857600080fd5b6121b486828701611f6c565b93505060206121c586828701611fc0565b92505060406121d686828701611ec4565b9150509250925092565b6000602082840312156121f257600080fd5b600061220084828501611fd5565b91505092915050565b600061221583836124c5565b905092915050565b612226816128c0565b82525050565b6000612237826127fc565b612241818561282a565b935083602082028501612253856127ec565b8060005b8581101561228f57848403895281516122708582612209565b945061227b8361281d565b925060208a01995050600181019050612257565b50829750879550505050505092915050565b6122aa81612880565b82525050565b6122b981612880565b82525050565b60006122ca82612807565b6122d4818561283b565b93506122e4818560208601612917565b6122ed8161294a565b840191505092915050565b612301816128d2565b82525050565b600061231282612812565b61231c818561284c565b935061232c818560208601612917565b6123358161294a565b840191505092915050565b600061234b82612812565b612355818561285d565b9350612365818560208601612917565b61236e8161294a565b840191505092915050565b6000612386600b8361285d565b91507f696e76616c6964204167650000000000000000000000000000000000000000006000830152602082019050919050565b60006123c660208361285d565b91507f4e6f2070617469656e7420617661696c61626c6520666f72206c6f6f6b75702e6000830152602082019050919050565b6000612406602e8361285d565b91507f706c656173652061646420736f6d652045544820746f20636f76657220666f7260008301527f20746865207175657279206665650000000000000000000000000000000000006020830152604082019050919050565b600061246c60218361285d565b91507f4e6f2070617469656e747320617661696c61626c6520666f72206c6f6f6b757060008301527f2e000000000000000000000000000000000000000000000000000000000000006020830152604082019050919050565b600060608301600083015184820360008601526124e28282612307565b91505060208301516124f760208601826122a1565b50604083015161250a6040860182612565565b508091505092915050565b600060608301600083015184820360008601526125328282612307565b915050602083015161254760208601826122a1565b50604083015161255a6040860182612565565b508091505092915050565b61256e816128b6565b82525050565b61257d816128b6565b82525050565b6000602082019050818103600083015261259d818461222c565b905092915050565b60006040820190506125ba60008301856122b0565b81810360208301526125cc8184612340565b90509392505050565b600060208201905081810360008301526125ef81846122bf565b905092915050565b600060608201905061260c60008301866122f8565b818103602083015261261e8185612340565b905081810360408301526126328184612340565b9050949350505050565b600060208201905081810360008301526126568184612340565b905092915050565b6000602082019050818103600083015261267781612379565b9050919050565b60006020820190508181036000830152612697816123b9565b9050919050565b600060208201905081810360008301526126b7816123f9565b9050919050565b600060208201905081810360008301526126d78161245f565b9050919050565b600060208201905081810360008301526126f88184612515565b905092915050565b60006020820190506127156000830184612574565b92915050565b60006080820190506127306000830187612574565b81810360208301526127428186612340565b905061275160408301856122b0565b61275e606083018461221d565b95945050505050565b6000604051905081810181811067ffffffffffffffff8211171561278a57600080fd5b8060405250919050565b600067ffffffffffffffff8211156127ab57600080fd5b601f19601f8301169050602081019050919050565b600067ffffffffffffffff8211156127d757600080fd5b601f19601f8301169050602081019050919050565b6000819050602082019050919050565b600081519050919050565b600081519050919050565b600081519050919050565b6000602082019050919050565b600082825260208201905092915050565b600082825260208201905092915050565b600082825260208201905092915050565b600082825260208201905092915050565b600061287982612896565b9050919050565b60008115159050919050565b6000819050919050565b600073ffffffffffffffffffffffffffffffffffffffff82169050919050565b6000819050919050565b60006128cb826128e4565b9050919050565b60006128dd826128b6565b9050919050565b60006128ef826128f6565b9050919050565b600061290182612896565b9050919050565b82818337600083830152505050565b60005b8381101561293557808201518184015260208101905061291a565b83811115612944576000848401525b50505050565b6000601f19601f8301169050919050565b6129648161286e565b811461296f57600080fd5b50565b61297b81612880565b811461298657600080fd5b50565b6129928161288c565b811461299d57600080fd5b50565b6129a9816128b6565b81146129b457600080fd5b5056fe6a736f6e2868747470733a2f2f6170692e61706966792e636f6d2f76322f6b65792d76616c75652d73746f7265732f76716e4555653756744b4e4d71477146462f7265636f7264732f4c41544553543f64697361626c6552656469726563743d74727565292e696e6665637465644279526567696f6e5b305d2e696e666563746564436f756e74a26469706673582212201194884b8aa68c8a76b91b2d5daccd4a5349aeb55325eb1c308f5a01642ced0164736f6c63430007000033608060405234801561001057600080fd5b5061049c806100206000396000f3fe608060405234801561001057600080fd5b506004361061002b5760003560e01c80634e8e398914610030575b600080fd5b61004a6004803603810190610045919061021e565b610060565b6040516100579190610325565b60405180910390f35b600060405160200161007190610310565b60405160208183030381529060405280519060200120826000015160405160200161009c91906102f9565b6040516020818303038152906040528051906020012014156100f3576040517f08c379a00000000000000000000000000000000000000000000000000000000081526004016100ea90610340565b60405180910390fd5b601282604001511015801561011057506001151582602001511515145b1561011e5760019050610123565b600090505b919050565b60008135905061013781610438565b92915050565b600082601f83011261014e57600080fd5b813561016161015c8261038d565b610360565b9150808252602083016020830185838301111561017d57600080fd5b6101888382846103f6565b50505092915050565b6000606082840312156101a357600080fd5b6101ad6060610360565b9050600082013567ffffffffffffffff8111156101c957600080fd5b6101d58482850161013d565b60008301525060206101e984828501610128565b60208301525060406101fd84828501610209565b60408301525092915050565b6000813590506102188161044f565b92915050565b60006020828403121561023057600080fd5b600082013567ffffffffffffffff81111561024a57600080fd5b61025684828501610191565b91505092915050565b610268816103e0565b82525050565b6000610279826103b9565b61028381856103d5565b9350610293818560208601610405565b80840191505092915050565b60006102ac6011836103c4565b91507f50617469656e74206e6f7420666f756e640000000000000000000000000000006000830152602082019050919050565b60006102ec6000836103d5565b9150600082019050919050565b6000610305828461026e565b915081905092915050565b600061031b826102df565b9150819050919050565b600060208201905061033a600083018461025f565b92915050565b600060208201905081810360008301526103598161029f565b9050919050565b6000604051905081810181811067ffffffffffffffff8211171561038357600080fd5b8060405250919050565b600067ffffffffffffffff8211156103a457600080fd5b601f19601f8301169050602081019050919050565b600081519050919050565b600082825260208201905092915050565b600081905092915050565b60008115159050919050565b6000819050919050565b82818337600083830152505050565b60005b83811015610423578082015181840152602081019050610408565b83811115610432576000848401525b50505050565b610441816103e0565b811461044c57600080fd5b50565b610458816103ec565b811461046357600080fd5b5056fea26469706673582212205296f2ba6b3f3807446b2e05416ddd378bc2d3cb55942c8e2fdb4d52994e299c64736f6c63430007000033",
  "immutableReferences": {},
  "source": "// SPDX-License-Identifier: MIT\npragma solidity 0.7.0;\npragma experimental ABIEncoderV2;\nimport './provableAPI.sol';\nimport './Patient.sol';\nimport './CoronaTest.sol';\n\ncontract TestStreet is usingProvable{\n    event newPatient(uint id, string name, bool hasFever, address _address);\n    event testResult(bool hasCorona, string name);\n    mapping (address => Patient) addressToPatient;\n    mapping(uint => address) patientToOwner; \n    mapping (address => uint) patientLookup;\n    Patient[] patients;\n    CoronaTest CT;\n      \n   bytes public infectedNumber;\n   uint256 public priceOfUrl;\n      \n    constructor() payable{\n    CT = new CoronaTest();\n    }\n       \n   function createPatient(string memory _patientName, uint _patientAge, bool _hasFever) public {\n   require(_patientAge >= 0, \"invalid Age\"); \n   Patient memory p = addressToPatient[msg.sender];\n   p.patientName = _patientName;\n   p.patientAge =_patientAge;\n   p.hasFever = _hasFever;\n   patients.push(p);\n   uint id = patients.length -1;\n   patientToOwner[id] = msg.sender;\n   emit newPatient(id, _patientName, _hasFever, msg.sender); \n}\n\n   function testPatient() public {\n    Patient memory p = getPatient();\n     testPatient(p);\n    }\n\n   function testPatient(Patient memory _patient) internal returns (bool result) {\n        require((patients.length > 0), \"No patient available for lookup.\");\n        emit testResult(CT.coronaTest(_patient), _patient.patientName);\n        return CT.coronaTest(_patient);\n    }\n\n     function getPatients() view public returns(Patient[] memory) {\n       require((patients.length > 0), \"No patients available for lookup.\");\n        return patients;\n    }\n\n     function getPatient() public view returns (Patient memory) {\n        require((patients.length > 0), \"No patient available for lookup.\"); \n        return patients[patientLookup[msg.sender]];\n    }\n    \n      function __callback(bytes32, /* myid prevent warning*/string memory result) public override {\n        if (msg.sender != provable_cbAddress()) revert();\n        infectedNumber = bytes(result);\n    }\n\n    function getInfectedNumber()public view returns(bytes memory){\n        return infectedNumber;\n    }\n\n    function getInfected() public payable {\n        priceOfUrl = provable_getPrice(\"URL\");\n        require(    \n            address(this).balance >= priceOfUrl,\"please add some ETH to cover for the query fee\");\n        provable_query(\n            \"URL\",\n            \"json(https://api.apify.com/v2/key-value-stores/vqnEUe7VtKNMqGqFF/records/LATEST?disableRedirect=true).infectedByRegion[0].infectedCount\"\n        );\n    }\n    function getInfectedNumberUint() public view returns (uint) {\n        return convertToUint(infectedNumber);\n    }\n\n    function convertToUint(bytes memory input) public pure returns (uint) { \n        uint res=0;\n        for (uint i=0;i<input.length;i++) \n        res = (res<<8) + uint(uint8(input[i]));\n        return res;\n    }\n}",
  "sourcePath": "C:/PD-08/contracts/TestStreet.sol",
  "compiler": {
    "name": "solc",
    "version": "0.7.0+commit.9e61f92b.Emscripten.clang"
  },
  "schemaVersion": "3.3.2",
  "updatedAt": "2021-01-28T13:20:11.701Z",
  "networkType": "ethereum",
  "devdoc": {
    "kind": "dev",
    "methods": {},
    "version": 1
  },
  "userdoc": {
    "kind": "user",
    "methods": {},
    "version": 1
  }
}