{
  "contractName": "CoronaTest",
  "abi": [
    {
      "inputs": [],
      "stateMutability": "nonpayable",
      "type": "constructor"
    },
    {
      "inputs": [
        {
          "components": [
            {
              "internalType": "string",
              "name": "patientName",
              "type": "string"
            },
            {
              "internalType": "bool",
              "name": "hasFever",
              "type": "bool"
            },
            {
              "internalType": "uint256",
              "name": "patientAge",
              "type": "uint256"
            }
          ],
          "internalType": "struct Patient",
          "name": "_patient",
          "type": "tuple"
        }
      ],
      "name": "coronaTest",
      "outputs": [
        {
          "internalType": "bool",
          "name": "result",
          "type": "bool"
        }
      ],
      "stateMutability": "pure",
      "type": "function",
      "constant": true
    }
  ],
  "bytecode": "0x608060405234801561001057600080fd5b5061049c806100206000396000f3fe608060405234801561001057600080fd5b506004361061002b5760003560e01c80634e8e398914610030575b600080fd5b61004a6004803603810190610045919061021e565b610060565b6040516100579190610325565b60405180910390f35b600060405160200161007190610310565b60405160208183030381529060405280519060200120826000015160405160200161009c91906102f9565b6040516020818303038152906040528051906020012014156100f3576040517f08c379a00000000000000000000000000000000000000000000000000000000081526004016100ea90610340565b60405180910390fd5b601282604001511015801561011057506001151582602001511515145b1561011e5760019050610123565b600090505b919050565b60008135905061013781610438565b92915050565b600082601f83011261014e57600080fd5b813561016161015c8261038d565b610360565b9150808252602083016020830185838301111561017d57600080fd5b6101888382846103f6565b50505092915050565b6000606082840312156101a357600080fd5b6101ad6060610360565b9050600082013567ffffffffffffffff8111156101c957600080fd5b6101d58482850161013d565b60008301525060206101e984828501610128565b60208301525060406101fd84828501610209565b60408301525092915050565b6000813590506102188161044f565b92915050565b60006020828403121561023057600080fd5b600082013567ffffffffffffffff81111561024a57600080fd5b61025684828501610191565b91505092915050565b610268816103e0565b82525050565b6000610279826103b9565b61028381856103d5565b9350610293818560208601610405565b80840191505092915050565b60006102ac6011836103c4565b91507f50617469656e74206e6f7420666f756e640000000000000000000000000000006000830152602082019050919050565b60006102ec6000836103d5565b9150600082019050919050565b6000610305828461026e565b915081905092915050565b600061031b826102df565b9150819050919050565b600060208201905061033a600083018461025f565b92915050565b600060208201905081810360008301526103598161029f565b9050919050565b6000604051905081810181811067ffffffffffffffff8211171561038357600080fd5b8060405250919050565b600067ffffffffffffffff8211156103a457600080fd5b601f19601f8301169050602081019050919050565b600081519050919050565b600082825260208201905092915050565b600081905092915050565b60008115159050919050565b6000819050919050565b82818337600083830152505050565b60005b83811015610423578082015181840152602081019050610408565b83811115610432576000848401525b50505050565b610441816103e0565b811461044c57600080fd5b50565b610458816103ec565b811461046357600080fd5b5056fea26469706673582212205296f2ba6b3f3807446b2e05416ddd378bc2d3cb55942c8e2fdb4d52994e299c64736f6c63430007000033",
  "immutableReferences": {},
  "source": "// SPDX-License-Identifier: MIT\npragma solidity 0.7.0;\npragma experimental ABIEncoderV2;\n\nimport './Patient.sol';\n\ncontract CoronaTest {\n    \n    constructor () {}\n    \n    function coronaTest(Patient memory _patient) public pure returns (bool result){\n      require(keccak256(abi.encodePacked(_patient.patientName)) != keccak256(abi.encodePacked('')), \"Patient not found\");\n        if (_patient.patientAge >= 18 && _patient.hasFever == true) {\n            return true;\n        } else {\n            return false;\n        }\n    }\n}",
  "sourcePath": "C:\\PD-08\\contracts\\CoronaTest.sol",
  "compiler": {
    "name": "solc",
    "version": "0.7.0+commit.9e61f92b.Emscripten.clang"
  },
  "schemaVersion": "3.3.2",
  "updatedAt": "2021-01-28T13:20:11.685Z",
  "networkType": "ethereum",
  "devdoc": {
    "kind": "dev",
    "methods": {},
    "version": 1
  },
  "userdoc": {
    "kind": "user",
    "methods": {},
    "version": 1
  }
}