{
  "contractName": "TestStreet",
  "abi": [
    {
      "inputs": [],
      "stateMutability": "nonpayable",
      "type": "constructor"
    },
    {
      "anonymous": false,
      "inputs": [
        {
          "indexed": false,
          "internalType": "uint256",
          "name": "id",
          "type": "uint256"
        },
        {
          "indexed": false,
          "internalType": "string",
          "name": "name",
          "type": "string"
        },
        {
          "indexed": false,
          "internalType": "bool",
          "name": "hasFever",
          "type": "bool"
        },
        {
          "indexed": false,
          "internalType": "address",
          "name": "_address",
          "type": "address"
        }
      ],
      "name": "newPatient",
      "type": "event"
    },
    {
      "anonymous": false,
      "inputs": [
        {
          "indexed": false,
          "internalType": "bool",
          "name": "hasCorona",
          "type": "bool"
        },
        {
          "indexed": false,
          "internalType": "string",
          "name": "name",
          "type": "string"
        }
      ],
      "name": "testResult",
      "type": "event"
    },
    {
      "inputs": [
        {
          "internalType": "string",
          "name": "_patientName",
          "type": "string"
        },
        {
          "internalType": "uint256",
          "name": "_patientAge",
          "type": "uint256"
        },
        {
          "internalType": "bool",
          "name": "_hasFever",
          "type": "bool"
        }
      ],
      "name": "createPatient",
      "outputs": [],
      "stateMutability": "nonpayable",
      "type": "function"
    },
    {
      "inputs": [],
      "name": "testPatient",
      "outputs": [],
      "stateMutability": "nonpayable",
      "type": "function"
    },
    {
      "inputs": [],
      "name": "getPatients",
      "outputs": [
        {
          "components": [
            {
              "internalType": "string",
              "name": "patientName",
              "type": "string"
            },
            {
              "internalType": "bool",
              "name": "hasFever",
              "type": "bool"
            },
            {
              "internalType": "uint256",
              "name": "patientAge",
              "type": "uint256"
            }
          ],
          "internalType": "struct Patient[]",
          "name": "",
          "type": "tuple[]"
        }
      ],
      "stateMutability": "view",
      "type": "function",
      "constant": true
    },
    {
      "inputs": [],
      "name": "getPatient",
      "outputs": [
        {
          "components": [
            {
              "internalType": "string",
              "name": "patientName",
              "type": "string"
            },
            {
              "internalType": "bool",
              "name": "hasFever",
              "type": "bool"
            },
            {
              "internalType": "uint256",
              "name": "patientAge",
              "type": "uint256"
            }
          ],
          "internalType": "struct Patient",
          "name": "",
          "type": "tuple"
        }
      ],
      "stateMutability": "view",
      "type": "function",
      "constant": true
    }
  ],
  "bytecode": "0x608060405234801561001057600080fd5b5060405161001d9061007f565b604051809103906000f080158015610039573d6000803e3d6000fd5b50600460006101000a81548173ffffffffffffffffffffffffffffffffffffffff021916908373ffffffffffffffffffffffffffffffffffffffff16021790555061008c565b6104bc8061108883390190565b610fed8061009b6000396000f3fe608060405234801561001057600080fd5b506004361061004c5760003560e01c806312ad1c37146100515780632839de5b1461006f5780637b0f9a361461008b578063b1f19b37146100a9575b600080fd5b6100596100b3565b6040516100669190610ceb565b60405180910390f35b610089600480360381019061008491906109b8565b610221565b005b6100936104ba565b6040516100a09190610d9d565b60405180910390f35b6100b161063b565b005b60606000600380549050116100fd576040517f08c379a00000000000000000000000000000000000000000000000000000000081526004016100f490610d7d565b60405180910390fd5b6003805480602002602001604051908101604052809291908181526020016000905b828210156102185783829060005260206000209060030201604051806060016040529081600082018054600181600116156101000203166002900480601f0160208091040260200160405190810160405280929190818152602001828054600181600116156101000203166002900480156101db5780601f106101b0576101008083540402835291602001916101db565b820191906000526020600020905b8154815290600101906020018083116101be57829003601f168201915b505050505081526020016001820160009054906101000a900460ff161515151581526020016002820154815250508152602001906001019061011f565b50505050905090565b6000821015610265576040517f08c379a000000000000000000000000000000000000000000000000000000000815260040161025c90610d3d565b60405180910390fd5b61026d61083c565b6000803373ffffffffffffffffffffffffffffffffffffffff1673ffffffffffffffffffffffffffffffffffffffff168152602001908152602001600020604051806060016040529081600082018054600181600116156101000203166002900480601f01602080910402602001604051908101604052809291908181526020018280546001816001161561010002031660029004801561034f5780601f106103245761010080835404028352916020019161034f565b820191906000526020600020905b81548152906001019060200180831161033257829003601f168201915b505050505081526020016001820160009054906101000a900460ff1615151515815260200160028201548152505090508381600001819052508281604001818152505081816020019015159081151581525050600381908060018154018082558091505060019003906000526020600020906003020160009091909190915060008201518160000190805190602001906103ea92919061085f565b5060208201518160010160006101000a81548160ff02191690831515021790555060408201518160020155505060006001600380549050039050336001600083815260200190815260200160002060006101000a81548173ffffffffffffffffffffffffffffffffffffffff021916908373ffffffffffffffffffffffffffffffffffffffff1602179055507fec499d8cef6f0cdeb621d90f65a7a9745ea16490621bfda0daab4d5f0229863c818685336040516104ab9493929190610dbf565b60405180910390a15050505050565b6104c261083c565b60006003805490501161050a576040517f08c379a000000000000000000000000000000000000000000000000000000000815260040161050190610d5d565b60405180910390fd5b6003600260003373ffffffffffffffffffffffffffffffffffffffff1673ffffffffffffffffffffffffffffffffffffffff168152602001908152602001600020548154811061055657fe5b9060005260206000209060030201604051806060016040529081600082018054600181600116156101000203166002900480601f0160208091040260200160405190810160405280929190818152602001828054600181600116156101000203166002900480156106085780601f106105dd57610100808354040283529160200191610608565b820191906000526020600020905b8154815290600101906020018083116105eb57829003601f168201915b505050505081526020016001820160009054906101000a900460ff16151515158152602001600282015481525050905090565b61064361083c565b61064b6104ba565b90506106568161065a565b5050565b600080600380549050116106a3576040517f08c379a000000000000000000000000000000000000000000000000000000000815260040161069a90610d5d565b60405180910390fd5b7f60ced1a12efb84c0524a2d2592407b1b6b6c6480fd205680a277aa27501a4471600460009054906101000a900473ffffffffffffffffffffffffffffffffffffffff1673ffffffffffffffffffffffffffffffffffffffff16634e8e3989846040518263ffffffff1660e01b815260040161071f9190610d9d565b60206040518083038186803b15801561073757600080fd5b505afa15801561074b573d6000803e3d6000fd5b505050506040513d601f19601f8201168201806040525081019061076f919061098f565b8360000151604051610782929190610d0d565b60405180910390a1600460009054906101000a900473ffffffffffffffffffffffffffffffffffffffff1673ffffffffffffffffffffffffffffffffffffffff16634e8e3989836040518263ffffffff1660e01b81526004016107e59190610d9d565b60206040518083038186803b1580156107fd57600080fd5b505afa158015610811573d6000803e3d6000fd5b505050506040513d601f19601f82011682018060405250810190610835919061098f565b9050919050565b604051806060016040528060608152602001600015158152602001600081525090565b828054600181600116156101000203166002900490600052602060002090601f016020900481019282601f106108a057805160ff19168380011785556108ce565b828001600101855582156108ce579182015b828111156108cd5782518255916020019190600101906108b2565b5b5090506108db91906108df565b5090565b5b808211156108f85760008160009055506001016108e0565b5090565b60008135905061090b81610f89565b92915050565b60008151905061092081610f89565b92915050565b600082601f83011261093757600080fd5b813561094a61094582610e38565b610e0b565b9150808252602083016020830185838301111561096657600080fd5b610971838284610f36565b50505092915050565b60008135905061098981610fa0565b92915050565b6000602082840312156109a157600080fd5b60006109af84828501610911565b91505092915050565b6000806000606084860312156109cd57600080fd5b600084013567ffffffffffffffff8111156109e757600080fd5b6109f386828701610926565b9350506020610a048682870161097a565b9250506040610a15868287016108fc565b9150509250925092565b6000610a2b8383610c2d565b905092915050565b610a3c81610f00565b82525050565b6000610a4d82610e74565b610a578185610e97565b935083602082028501610a6985610e64565b8060005b85811015610aa55784840389528151610a868582610a1f565b9450610a9183610e8a565b925060208a01995050600181019050610a6d565b50829750879550505050505092915050565b610ac081610eca565b82525050565b610acf81610eca565b82525050565b6000610ae082610e7f565b610aea8185610ea8565b9350610afa818560208601610f45565b610b0381610f78565b840191505092915050565b6000610b1982610e7f565b610b238185610eb9565b9350610b33818560208601610f45565b610b3c81610f78565b840191505092915050565b6000610b54600b83610eb9565b91507f696e76616c6964204167650000000000000000000000000000000000000000006000830152602082019050919050565b6000610b94602083610eb9565b91507f4e6f2070617469656e7420617661696c61626c6520666f72206c6f6f6b75702e6000830152602082019050919050565b6000610bd4602183610eb9565b91507f4e6f2070617469656e747320617661696c61626c6520666f72206c6f6f6b757060008301527f2e000000000000000000000000000000000000000000000000000000000000006020830152604082019050919050565b60006060830160008301518482036000860152610c4a8282610ad5565b9150506020830151610c5f6020860182610ab7565b506040830151610c726040860182610ccd565b508091505092915050565b60006060830160008301518482036000860152610c9a8282610ad5565b9150506020830151610caf6020860182610ab7565b506040830151610cc26040860182610ccd565b508091505092915050565b610cd681610ef6565b82525050565b610ce581610ef6565b82525050565b60006020820190508181036000830152610d058184610a42565b905092915050565b6000604082019050610d226000830185610ac6565b8181036020830152610d348184610b0e565b90509392505050565b60006020820190508181036000830152610d5681610b47565b9050919050565b60006020820190508181036000830152610d7681610b87565b9050919050565b60006020820190508181036000830152610d9681610bc7565b9050919050565b60006020820190508181036000830152610db78184610c7d565b905092915050565b6000608082019050610dd46000830187610cdc565b8181036020830152610de68186610b0e565b9050610df56040830185610ac6565b610e026060830184610a33565b95945050505050565b6000604051905081810181811067ffffffffffffffff82111715610e2e57600080fd5b8060405250919050565b600067ffffffffffffffff821115610e4f57600080fd5b601f19601f8301169050602081019050919050565b6000819050602082019050919050565b600081519050919050565b600081519050919050565b6000602082019050919050565b600082825260208201905092915050565b600082825260208201905092915050565b600082825260208201905092915050565b60008115159050919050565b600073ffffffffffffffffffffffffffffffffffffffff82169050919050565b6000819050919050565b6000610f0b82610f12565b9050919050565b6000610f1d82610f24565b9050919050565b6000610f2f82610ed6565b9050919050565b82818337600083830152505050565b60005b83811015610f63578082015181840152602081019050610f48565b83811115610f72576000848401525b50505050565b6000601f19601f8301169050919050565b610f9281610eca565b8114610f9d57600080fd5b50565b610fa981610ef6565b8114610fb457600080fd5b5056fea26469706673582212208c4fc3d705c687171fe8bc1cb196e351a64bce03f7685511918fdc9a5a0aeb5b64736f6c63430007000033608060405234801561001057600080fd5b5061049c806100206000396000f3fe608060405234801561001057600080fd5b506004361061002b5760003560e01c80634e8e398914610030575b600080fd5b61004a6004803603810190610045919061021e565b610060565b6040516100579190610325565b60405180910390f35b600060405160200161007190610310565b60405160208183030381529060405280519060200120826000015160405160200161009c91906102f9565b6040516020818303038152906040528051906020012014156100f3576040517f08c379a00000000000000000000000000000000000000000000000000000000081526004016100ea90610340565b60405180910390fd5b601282604001511015801561011057506001151582602001511515145b1561011e5760019050610123565b600090505b919050565b60008135905061013781610438565b92915050565b600082601f83011261014e57600080fd5b813561016161015c8261038d565b610360565b9150808252602083016020830185838301111561017d57600080fd5b6101888382846103f6565b50505092915050565b6000606082840312156101a357600080fd5b6101ad6060610360565b9050600082013567ffffffffffffffff8111156101c957600080fd5b6101d58482850161013d565b60008301525060206101e984828501610128565b60208301525060406101fd84828501610209565b60408301525092915050565b6000813590506102188161044f565b92915050565b60006020828403121561023057600080fd5b600082013567ffffffffffffffff81111561024a57600080fd5b61025684828501610191565b91505092915050565b610268816103e0565b82525050565b6000610279826103b9565b61028381856103d5565b9350610293818560208601610405565b80840191505092915050565b60006102ac6011836103c4565b91507f50617469656e74206e6f7420666f756e640000000000000000000000000000006000830152602082019050919050565b60006102ec6000836103d5565b9150600082019050919050565b6000610305828461026e565b915081905092915050565b600061031b826102df565b9150819050919050565b600060208201905061033a600083018461025f565b92915050565b600060208201905081810360008301526103598161029f565b9050919050565b6000604051905081810181811067ffffffffffffffff8211171561038357600080fd5b8060405250919050565b600067ffffffffffffffff8211156103a457600080fd5b601f19601f8301169050602081019050919050565b600081519050919050565b600082825260208201905092915050565b600081905092915050565b60008115159050919050565b6000819050919050565b82818337600083830152505050565b60005b83811015610423578082015181840152602081019050610408565b83811115610432576000848401525b50505050565b610441816103e0565b811461044c57600080fd5b50565b610458816103ec565b811461046357600080fd5b5056fea264697066735822122006d0491d814d8c22b489973e62adc33e01d204a7f966c934405564f32b495a1664736f6c63430007000033",
  "immutableReferences": {},
  "source": "// SPDX-License-Identifier: MIT\npragma solidity 0.7.0;\npragma experimental ABIEncoderV2;\n\nimport './Patient.sol';\nimport './CoronaTest.sol';\n\ncontract TestStreet {\n    \n    event newPatient(uint id, string name, bool hasFever, address _address);\n    event testResult(bool hasCorona, string name);\n    mapping (address => Patient) addressToPatient;\n    mapping(uint => address) patientToOwner; \n    mapping (address => uint) patientLookup;\n    Patient[] patients;\n    CoronaTest CT;\n      \n    constructor () {\n    CT = new CoronaTest();\n    }\n    \n /*  function createPatient(string memory _name, uint _patientAge, bool hasFever) public {\n    require(_patientAge >= 0, \"invalid Age\");    \n    patients.push(Patient(_name, hasFever, _patientAge ));\n    uint patientId = patients.length -1;\n    emit newPatient(patientId, _name, testPatient(patients[patientId]));\n    }*/\n    \n   function createPatient(string memory _patientName, uint _patientAge, bool _hasFever) public {\n   require(_patientAge >= 0, \"invalid Age\"); \n   Patient memory p = addressToPatient[msg.sender];\n   p.patientName = _patientName;\n   p.patientAge =_patientAge;\n   p.hasFever = _hasFever;\n   patients.push(p);\n   uint id = patients.length -1;\n   patientToOwner[id] = msg.sender;\n   emit newPatient(id, _patientName, _hasFever, msg.sender);\n  \n}\n\n\n   function testPatient() public {\n    Patient memory p = getPatient();\n     testPatient(p);\n    }\n\n   function testPatient(Patient memory _patient) internal returns (bool result) {\n      require((patients.length > 0), \"No patient available for lookup.\");\n        emit testResult(CT.coronaTest(_patient), _patient.patientName);\n        return CT.coronaTest(_patient);\n    }\n    \n     function getPatients() view public returns(Patient[] memory) {\n       require((patients.length > 0), \"No patients available for lookup.\");\n        return patients;\n    }\n    \n  function getPatient() public view returns (Patient memory) {\n        require((patients.length > 0), \"No patient available for lookup.\"); \n        return patients[patientLookup[msg.sender]];\n    }\n    \n}",
  "sourcePath": "C:/Users/Daddy/TruffleTest/contracts/TestStreet.sol",
  "compiler": {
    "name": "solc",
    "version": "0.7.0+commit.9e61f92b.Emscripten.clang"
  },
  "schemaVersion": "3.3.2",
  "updatedAt": "2020-12-17T16:17:11.093Z",
  "networkType": "ethereum",
  "devdoc": {
    "kind": "dev",
    "methods": {},
    "version": 1
  },
  "userdoc": {
    "kind": "user",
    "methods": {},
    "version": 1
  }
}